{
  "contractName": "FoodSafety",
  "abi": [
    {
      "anonymous": false,
      "inputs": [
        {
          "indexed": false,
          "internalType": "uint256",
          "name": "id",
          "type": "uint256"
        },
        {
          "indexed": false,
          "internalType": "string",
          "name": "origin",
          "type": "string"
        },
        {
          "indexed": false,
          "internalType": "string",
          "name": "quality",
          "type": "string"
        },
        {
          "indexed": false,
          "internalType": "uint256",
          "name": "timestamp",
          "type": "uint256"
        },
        {
          "indexed": false,
          "internalType": "string",
          "name": "motionData",
          "type": "string"
        }
      ],
      "name": "NewBatch",
      "type": "event"
    },
    {
      "inputs": [
        {
          "internalType": "uint256",
          "name": "",
          "type": "uint256"
        }
      ],
      "name": "batches",
      "outputs": [
        {
          "internalType": "uint256",
          "name": "id",
          "type": "uint256"
        },
        {
          "internalType": "string",
          "name": "origin",
          "type": "string"
        },
        {
          "internalType": "string",
          "name": "quality",
          "type": "string"
        },
        {
          "internalType": "uint256",
          "name": "timestamp",
          "type": "uint256"
        },
        {
          "internalType": "string",
          "name": "motionData",
          "type": "string"
        }
      ],
      "stateMutability": "view",
      "type": "function",
      "constant": true
    },
    {
      "inputs": [],
      "name": "nextId",
      "outputs": [
        {
          "internalType": "uint256",
          "name": "",
          "type": "uint256"
        }
      ],
      "stateMutability": "view",
      "type": "function",
      "constant": true
    },
    {
      "inputs": [
        {
          "internalType": "string",
          "name": "origin",
          "type": "string"
        },
        {
          "internalType": "string",
          "name": "quality",
          "type": "string"
        },
        {
          "internalType": "string",
          "name": "motionData",
          "type": "string"
        }
      ],
      "name": "addBatch",
      "outputs": [],
      "stateMutability": "nonpayable",
      "type": "function"
    },
    {
      "inputs": [
        {
          "internalType": "uint256",
          "name": "id",
          "type": "uint256"
        }
      ],
      "name": "getBatch",
      "outputs": [
        {
          "internalType": "uint256",
          "name": "",
          "type": "uint256"
        },
        {
          "internalType": "string",
          "name": "",
          "type": "string"
        },
        {
          "internalType": "string",
          "name": "",
          "type": "string"
        },
        {
          "internalType": "uint256",
          "name": "",
          "type": "uint256"
        },
        {
          "internalType": "string",
          "name": "",
          "type": "string"
        }
      ],
      "stateMutability": "view",
      "type": "function",
      "constant": true
    },
    {
      "inputs": [],
      "name": "getBatches",
      "outputs": [
        {
          "components": [
            {
              "internalType": "uint256",
              "name": "id",
              "type": "uint256"
            },
            {
              "internalType": "string",
              "name": "origin",
              "type": "string"
            },
            {
              "internalType": "string",
              "name": "quality",
              "type": "string"
            },
            {
              "internalType": "uint256",
              "name": "timestamp",
              "type": "uint256"
            },
            {
              "internalType": "string",
              "name": "motionData",
              "type": "string"
            }
          ],
          "internalType": "struct FoodSafety.MeatBatch[]",
          "name": "",
          "type": "tuple[]"
        }
      ],
      "stateMutability": "view",
      "type": "function",
      "constant": true
    }
  ],
  "bytecode": "0x608060405234801561001057600080fd5b50610f39806100206000396000f3fe608060405234801561001057600080fd5b50600436106100575760003560e01c8063477b29621461005c5780634792e9861461007a5780635ac442821461009657806361b8ce8c146100ca578063b32c4d8d146100e8575b600080fd5b61006461011c565b6040516100719190610c1b565b60405180910390f35b610094600480360381019061008f91906109be565b610345565b005b6100b060048036038101906100ab9190610a55565b610464565b6040516100c1959493929190610c58565b60405180910390f35b6100d26106ba565b6040516100df9190610c3d565b60405180910390f35b61010260048036038101906100fd9190610a55565b6106c0565b604051610113959493929190610c58565b60405180910390f35b60606000805480602002602001604051908101604052809291908181526020016000905b8282101561033c57838290600052602060002090600502016040518060a00160405290816000820154815260200160018201805461017d90610dd3565b80601f01602080910402602001604051908101604052809291908181526020018280546101a990610dd3565b80156101f65780601f106101cb576101008083540402835291602001916101f6565b820191906000526020600020905b8154815290600101906020018083116101d957829003601f168201915b5050505050815260200160028201805461020f90610dd3565b80601f016020809104026020016040519081016040528092919081815260200182805461023b90610dd3565b80156102885780601f1061025d57610100808354040283529160200191610288565b820191906000526020600020905b81548152906001019060200180831161026b57829003601f168201915b50505050508152602001600382015481526020016004820180546102ab90610dd3565b80601f01602080910402602001604051908101604052809291908181526020018280546102d790610dd3565b80156103245780601f106102f957610100808354040283529160200191610324565b820191906000526020600020905b81548152906001019060200180831161030757829003601f168201915b50505050508152505081526020019060010190610140565b50505050905090565b60006040518060a0016040528060015481526020018581526020018481526020014281526020018381525090806001815401808255809150506001900390600052602060002090600502016000909190919091506000820151816000015560208201518160010190805190602001906103bf92919061089e565b5060408201518160020190805190602001906103dc92919061089e565b5060608201518160030155608082015181600401908051906020019061040392919061089e565b5050507f1e69708a7663f93531ab98be0d4d33a1294b48188c58ea64286e2ffb84596bc06001548484428560405161043f959493929190610c58565b60405180910390a16001600081548092919061045a90610e05565b9190505550505050565b60006060806000606060008087815481106104a8577f4e487b7100000000000000000000000000000000000000000000000000000000600052603260045260246000fd5b90600052602060002090600502016040518060a0016040529081600082015481526020016001820180546104db90610dd3565b80601f016020809104026020016040519081016040528092919081815260200182805461050790610dd3565b80156105545780601f1061052957610100808354040283529160200191610554565b820191906000526020600020905b81548152906001019060200180831161053757829003601f168201915b5050505050815260200160028201805461056d90610dd3565b80601f016020809104026020016040519081016040528092919081815260200182805461059990610dd3565b80156105e65780601f106105bb576101008083540402835291602001916105e6565b820191906000526020600020905b8154815290600101906020018083116105c957829003601f168201915b505050505081526020016003820154815260200160048201805461060990610dd3565b80601f016020809104026020016040519081016040528092919081815260200182805461063590610dd3565b80156106825780601f1061065757610100808354040283529160200191610682565b820191906000526020600020905b81548152906001019060200180831161066557829003601f168201915b505050505081525050905080600001518160200151826040015183606001518460800151955095509550955095505091939590929450565b60015481565b600081815481106106d057600080fd5b90600052602060002090600502016000915090508060000154908060010180546106f990610dd3565b80601f016020809104026020016040519081016040528092919081815260200182805461072590610dd3565b80156107725780601f1061074757610100808354040283529160200191610772565b820191906000526020600020905b81548152906001019060200180831161075557829003601f168201915b50505050509080600201805461078790610dd3565b80601f01602080910402602001604051908101604052809291908181526020018280546107b390610dd3565b80156108005780601f106107d557610100808354040283529160200191610800565b820191906000526020600020905b8154815290600101906020018083116107e357829003601f168201915b50505050509080600301549080600401805461081b90610dd3565b80601f016020809104026020016040519081016040528092919081815260200182805461084790610dd3565b80156108945780601f1061086957610100808354040283529160200191610894565b820191906000526020600020905b81548152906001019060200180831161087757829003601f168201915b5050505050905085565b8280546108aa90610dd3565b90600052602060002090601f0160209004810192826108cc5760008555610913565b82601f106108e557805160ff1916838001178555610913565b82800160010185558215610913579182015b828111156109125782518255916020019190600101906108f7565b5b5090506109209190610924565b5090565b5b8082111561093d576000816000905550600101610925565b5090565b600061095461094f84610cf1565b610cc0565b90508281526020810184848401111561096c57600080fd5b610977848285610d91565b509392505050565b600082601f83011261099057600080fd5b81356109a0848260208601610941565b91505092915050565b6000813590506109b881610eec565b92915050565b6000806000606084860312156109d357600080fd5b600084013567ffffffffffffffff8111156109ed57600080fd5b6109f98682870161097f565b935050602084013567ffffffffffffffff811115610a1657600080fd5b610a228682870161097f565b925050604084013567ffffffffffffffff811115610a3f57600080fd5b610a4b8682870161097f565b9150509250925092565b600060208284031215610a6757600080fd5b6000610a75848285016109a9565b91505092915050565b6000610a8a8383610b79565b905092915050565b6000610a9d82610d31565b610aa78185610d54565b935083602082028501610ab985610d21565b8060005b85811015610af55784840389528151610ad68582610a7e565b9450610ae183610d47565b925060208a01995050600181019050610abd565b50829750879550505050505092915050565b6000610b1282610d3c565b610b1c8185610d65565b9350610b2c818560208601610da0565b610b3581610edb565b840191505092915050565b6000610b4b82610d3c565b610b558185610d76565b9350610b65818560208601610da0565b610b6e81610edb565b840191505092915050565b600060a083016000830151610b916000860182610bfd565b5060208301518482036020860152610ba98282610b07565b91505060408301518482036040860152610bc38282610b07565b9150506060830151610bd86060860182610bfd565b5060808301518482036080860152610bf08282610b07565b9150508091505092915050565b610c0681610d87565b82525050565b610c1581610d87565b82525050565b60006020820190508181036000830152610c358184610a92565b905092915050565b6000602082019050610c526000830184610c0c565b92915050565b600060a082019050610c6d6000830188610c0c565b8181036020830152610c7f8187610b40565b90508181036040830152610c938186610b40565b9050610ca26060830185610c0c565b8181036080830152610cb48184610b40565b90509695505050505050565b6000604051905081810181811067ffffffffffffffff82111715610ce757610ce6610eac565b5b8060405250919050565b600067ffffffffffffffff821115610d0c57610d0b610eac565b5b601f19601f8301169050602081019050919050565b6000819050602082019050919050565b600081519050919050565b600081519050919050565b6000602082019050919050565b600082825260208201905092915050565b600082825260208201905092915050565b600082825260208201905092915050565b6000819050919050565b82818337600083830152505050565b60005b83811015610dbe578082015181840152602081019050610da3565b83811115610dcd576000848401525b50505050565b60006002820490506001821680610deb57607f821691505b60208210811415610dff57610dfe610e7d565b5b50919050565b6000610e1082610d87565b91507fffffffffffffffffffffffffffffffffffffffffffffffffffffffffffffffff821415610e4357610e42610e4e565b5b600182019050919050565b7f4e487b7100000000000000000000000000000000000000000000000000000000600052601160045260246000fd5b7f4e487b7100000000000000000000000000000000000000000000000000000000600052602260045260246000fd5b7f4e487b7100000000000000000000000000000000000000000000000000000000600052604160045260246000fd5b6000601f19601f8301169050919050565b610ef581610d87565b8114610f0057600080fd5b5056fea2646970667358221220d21122d0ad5fe9510d50f85052b1dbfc2e9dec89532d64306bc400eaa6fe974b64736f6c63430008000033",
  "immutableReferences": {},
  "source": "// contracts/FoodSafety.sol\r\npragma solidity ^0.8.0;\r\n\r\ncontract FoodSafety {\r\n    struct MeatBatch {\r\n        uint256 id;\r\n        string origin;\r\n        string quality;\r\n        uint256 timestamp;\r\n        string motionData;\r\n    }\r\n\r\n    MeatBatch[] public batches;\r\n    uint256 public nextId;\r\n\r\n    event NewBatch(uint256 id, string origin, string quality, uint256 timestamp, string motionData);\r\n\r\n    function addBatch(string memory origin, string memory quality, string memory motionData) public {\r\n        batches.push(MeatBatch(nextId, origin, quality, block.timestamp, motionData));\r\n        emit NewBatch(nextId, origin, quality, block.timestamp, motionData);\r\n        nextId++;\r\n    }\r\n\r\n    function getBatch(uint256 id) public view returns (uint256, string memory, string memory, uint256, string memory) {\r\n        MeatBatch memory batch = batches[id];\r\n        return (batch.id, batch.origin, batch.quality, batch.timestamp, batch.motionData);\r\n    }\r\n\r\n    function getBatches() public view returns (MeatBatch[] memory) {\r\n        return batches;\r\n    }\r\n}\r\n",
  "sourcePath": "E:\\food-safety-app\\food-safety-blockchain\\contracts\\FoodSafety.sol",
  "compiler": {
    "name": "solc",
    "version": "0.8.0+commit.c7dfd78e.Emscripten.clang"
  },
  "schemaVersion": "3.4.16",
  "updatedAt": "2024-07-03T04:30:40.651Z",
  "networkType": "ethereum",
  "devdoc": {
    "kind": "dev",
    "methods": {},
    "version": 1
  },
  "userdoc": {
    "kind": "user",
    "methods": {},
    "version": 1
  }
}